S00E00004C61624144432E737265633F
S11300000C9438000C9442000C9442000C9442006E
S11300100C9442000C9442000C9442000C94420054
S11300200C9442000C9442000C9442000C94420044
S11300300C9442000C9442000C9442000C94420034
S11300400C9442000C9442000C9442000C94420024
S11300500C9442000C9442000C9442000C94420014
S11300600C9442000C9442000C9442000C94420004
S113007011241FBECFEFD4E0DEBFCDBF0E946E00BF
S11300800C947E000C94000088B3826288BB2FEF2E
S113009030E782E0215030408040E1F700C00000AA
S11300A088B38D7D88BB86B387738130E1F386B3D3
S11300B08773E9F388B3876388BB83B39FEF21EE2B
S11300C034E0915020403040E1F700C00000C49873
S11300D082BB089517B80E944400089514BA8FEFA4
S11300E086B997E397BB81BB83B7896183BF82E0FD
S11300F081BF88E088BB0E946A00FDCFF894FFCFDF
S9030000FC
