S01800006E657750726F6A65637452657475726E2E737265636B
S11300000C9438000C9442000C9442000C9442006E
S11300100C9442000C9442000C9442000C94420054
S11300200C9442000C9442000C9442000C94420044
S11300300C9442000C9442000C9442000C94420034
S11300400C9442000C9442000C9442000C94420024
S11300500C9442000C9442000C9442000C94420014
S11300600C9442000C9442000C9442000C94420004
S113007011241FBECFEFD4E0DEBFCDBF0E946400C9
S11300800C9477000C94000088B3846288BB87EAE0
S113009091E60197F1F700C0000088B38B7D88BB1F
S11300A0B399FECFB39BFECFC49A83B3EFE4F3ECD2
S11300B03197F1F700C00000C49882BB81BF089556
S11300C017B80E944400089514BA8FEF86B997E3D5
S11300D097BB81BB87B5896187BD82E082BD83B749
S11300E0816683BF88E088BB0E946000FDCFF894DE
S10500F0FFCF3C
S9030000FC
