S00B00007472792E73726563BA
S11300000C9438000C9442000C9442000C9442006E
S11300100C9442000C9442000C9442000C94420054
S11300200C9442000C9442000C9442000C94420044
S11300300C9442000C9442000C9442000C94420034
S11300400C9442000C9442000C9442000C94420024
S11300500C9442000C9442000C9442000C94420014
S11300600C9442000C9442000C9442000C94420004
S113007011241FBECFEFD4E0DEBFCDBF0E944F00DE
S11300800C9472000C9400008CB59DB5C29730F0AE
S113009092B380E1892782BB1DBC1CBC089514BAAD
S11300A081E087BB8C9A83B7816683BF85E08EBD70
S11300B01DBC1CBC0FEF10EAD0E5CAE00E9444004E
S11300C083B3813410F4C1BFF9CF9FEB980F903400
S11300D010F4D1BFF3CF8158813410F411BFEECFA7
S10B00E001BFECCFF894FFCF3F
S9030000FC
